{
  "contractName": "Prototype",
  "abi": [
    {
      "anonymous": false,
      "inputs": [
        {
          "indexed": false,
          "name": "signer",
          "type": "address"
        },
        {
          "indexed": false,
          "name": "pubKey",
          "type": "string"
        },
        {
          "indexed": false,
          "name": "str1",
          "type": "string"
        },
        {
          "indexed": false,
          "name": "str2",
          "type": "string"
        },
        {
          "indexed": false,
          "name": "addr",
          "type": "address"
        },
        {
          "indexed": false,
          "name": "hash",
          "type": "string"
        }
      ],
      "name": "NewDataAdded",
      "type": "event"
    },
    {
      "constant": false,
      "inputs": [
        {
          "name": "_pubKey",
          "type": "string"
        },
        {
          "name": "_str1",
          "type": "string"
        },
        {
          "name": "_str2",
          "type": "string"
        },
        {
          "name": "_addr",
          "type": "address"
        },
        {
          "name": "_hash",
          "type": "string"
        },
        {
          "name": "r",
          "type": "bytes32"
        },
        {
          "name": "s",
          "type": "bytes32"
        },
        {
          "name": "v",
          "type": "uint8"
        },
        {
          "name": "_signatureHash",
          "type": "bytes32"
        }
      ],
      "name": "approve",
      "outputs": [],
      "payable": false,
      "stateMutability": "nonpayable",
      "type": "function"
    },
    {
      "constant": true,
      "inputs": [
        {
          "name": "_hash",
          "type": "string"
        }
      ],
      "name": "getData",
      "outputs": [
        {
          "name": "pubKey",
          "type": "string"
        },
        {
          "name": "str1",
          "type": "string"
        },
        {
          "name": "str2",
          "type": "string"
        },
        {
          "name": "addr",
          "type": "address"
        }
      ],
      "payable": false,
      "stateMutability": "view",
      "type": "function"
    },
    {
      "constant": false,
      "inputs": [
        {
          "name": "_hash",
          "type": "bytes32"
        },
        {
          "name": "r",
          "type": "bytes32"
        },
        {
          "name": "s",
          "type": "bytes32"
        },
        {
          "name": "v",
          "type": "uint8"
        }
      ],
      "name": "recover",
      "outputs": [
        {
          "name": "sign",
          "type": "address"
        }
      ],
      "payable": false,
      "stateMutability": "nonpayable",
      "type": "function"
    }
  ],
  "bytecode": "0x608060405234801561001057600080fd5b5061106f806100206000396000f3fe608060405260043610610057576000357c0100000000000000000000000000000000000000000000000000000000900463ffffffff1680632bc7f6c21461005c578063388f2c3914610335578063ae55c888146103d1575b600080fd5b34801561006857600080fd5b50610333600480360361012081101561008057600080fd5b810190808035906020019064010000000081111561009d57600080fd5b8201836020820111156100af57600080fd5b803590602001918460018302840111640100000000831117156100d157600080fd5b91908080601f016020809104026020016040519081016040528093929190818152602001838380828437600081840152601f19601f8201169050808301925050505050505091929192908035906020019064010000000081111561013457600080fd5b82018360208201111561014657600080fd5b8035906020019184600183028401116401000000008311171561016857600080fd5b91908080601f016020809104026020016040519081016040528093929190818152602001838380828437600081840152601f19601f820116905080830192505050505050509192919290803590602001906401000000008111156101cb57600080fd5b8201836020820111156101dd57600080fd5b803590602001918460018302840111640100000000831117156101ff57600080fd5b91908080601f016020809104026020016040519081016040528093929190818152602001838380828437600081840152601f19601f820116905080830192505050505050509192919290803573ffffffffffffffffffffffffffffffffffffffff1690602001909291908035906020019064010000000081111561028257600080fd5b82018360208201111561029457600080fd5b803590602001918460018302840111640100000000831117156102b657600080fd5b91908080601f016020809104026020016040519081016040528093929190818152602001838380828437600081840152601f19601f8201169050808301925050505050505091929192908035906020019092919080359060200190929190803560ff1690602001909291908035906020019092919050505061061d565b005b34801561034157600080fd5b5061038f6004803603608081101561035857600080fd5b81019080803590602001909291908035906020019092919080359060200190929190803560ff169060200190929190505050610be0565b604051808273ffffffffffffffffffffffffffffffffffffffff1673ffffffffffffffffffffffffffffffffffffffff16815260200191505060405180910390f35b3480156103dd57600080fd5b50610497600480360360208110156103f457600080fd5b810190808035906020019064010000000081111561041157600080fd5b82018360208201111561042357600080fd5b8035906020019184600183028401116401000000008311171561044557600080fd5b91908080601f016020809104026020016040519081016040528093929190818152602001838380828437600081840152601f19601f820116905080830192505050505050509192919290505050610c53565b604051808060200180602001806020018573ffffffffffffffffffffffffffffffffffffffff1673ffffffffffffffffffffffffffffffffffffffff168152602001848103845288818151815260200191508051906020019080838360005b838110156105115780820151818401526020810190506104f6565b50505050905090810190601f16801561053e5780820380516001836020036101000a031916815260200191505b50848103835287818151815260200191508051906020019080838360005b8381101561057757808201518184015260208101905061055c565b50505050905090810190601f1680156105a45780820380516001836020036101000a031916815260200191505b50848103825286818151815260200191508051906020019080838360005b838110156105dd5780820151818401526020810190506105c2565b50505050905090810190601f16801561060a5780820380516001836020036101000a031916815260200191505b5097505050505050505060405180910390f35b3373ffffffffffffffffffffffffffffffffffffffff1660018284878760405160008152602001604052604051808581526020018460ff1660ff1681526020018381526020018281526020019450505050506020604051602081039080840390855afa158015610691573d6000803e3d6000fd5b5050506020604051035173ffffffffffffffffffffffffffffffffffffffff16141515610726576040517f08c379a00000000000000000000000000000000000000000000000000000000081526004018080602001828103825260118152602001807f496e76616c6964207369676e617475726500000000000000000000000000000081525060200191505060405180910390fd5b600015156000866040518082805190602001908083835b602083101515610762578051825260208201915060208101905060208303925061073d565b6001836020036101000a038019825116818451168082178552505050505050905001915050908152602001604051809103902060030160149054906101000a900460ff16151514151561081d576040517f08c379a00000000000000000000000000000000000000000000000000000000081526004018080602001828103825260138152602001807f4b657920616c726561647920657869737473210000000000000000000000000081525060200191505060405180910390fd5b60a0604051908101604052808a81526020018981526020018881526020018773ffffffffffffffffffffffffffffffffffffffff168152602001600115158152506000866040518082805190602001908083835b6020831015156108965780518252602082019150602081019050602083039250610871565b6001836020036101000a038019825116818451168082178552505050505050905001915050908152602001604051809103902060008201518160000190805190602001906108e5929190610f56565b506020820151816001019080519060200190610902929190610f56565b50604082015181600201908051906020019061091f929190610f56565b5060608201518160030160006101000a81548173ffffffffffffffffffffffffffffffffffffffff021916908373ffffffffffffffffffffffffffffffffffffffff16021790555060808201518160030160146101000a81548160ff0219169083151502179055509050507ff83c5d8e5fba81d7242da3d32f309b06a91f207fcea54ce828663a1eda1c8266338a8a8a8a8a604051808773ffffffffffffffffffffffffffffffffffffffff1673ffffffffffffffffffffffffffffffffffffffff1681526020018060200180602001806020018673ffffffffffffffffffffffffffffffffffffffff1673ffffffffffffffffffffffffffffffffffffffff1681526020018060200185810385528a818151815260200191508051906020019080838360005b83811015610a61578082015181840152602081019050610a46565b50505050905090810190601f168015610a8e5780820380516001836020036101000a031916815260200191505b50858103845289818151815260200191508051906020019080838360005b83811015610ac7578082015181840152602081019050610aac565b50505050905090810190601f168015610af45780820380516001836020036101000a031916815260200191505b50858103835288818151815260200191508051906020019080838360005b83811015610b2d578082015181840152602081019050610b12565b50505050905090810190601f168015610b5a5780820380516001836020036101000a031916815260200191505b50858103825286818151815260200191508051906020019080838360005b83811015610b93578082015181840152602081019050610b78565b50505050905090810190601f168015610bc05780820380516001836020036101000a031916815260200191505b509a505050505050505050505060405180910390a1505050505050505050565b600060018583868660405160008152602001604052604051808581526020018460ff1660ff1681526020018381526020018281526020019450505050506020604051602081039080840390855afa158015610c3f573d6000803e3d6000fd5b505050602060405103519050949350505050565b60608060606000610c62610fd6565b6000866040518082805190602001908083835b602083101515610c9a5780518252602082019150602081019050602083039250610c75565b6001836020036101000a038019825116818451168082178552505050505050905001915050908152602001604051809103902060a06040519081016040529081600082018054600181600116156101000203166002900480601f016020809104026020016040519081016040528092919081815260200182805460018160011615610100020316600290048015610d725780601f10610d4757610100808354040283529160200191610d72565b820191906000526020600020905b815481529060010190602001808311610d5557829003601f168201915b50505050508152602001600182018054600181600116156101000203166002900480601f016020809104026020016040519081016040528092919081815260200182805460018160011615610100020316600290048015610e145780601f10610de957610100808354040283529160200191610e14565b820191906000526020600020905b815481529060010190602001808311610df757829003601f168201915b50505050508152602001600282018054600181600116156101000203166002900480601f016020809104026020016040519081016040528092919081815260200182805460018160011615610100020316600290048015610eb65780601f10610e8b57610100808354040283529160200191610eb6565b820191906000526020600020905b815481529060010190602001808311610e9957829003601f168201915b505050505081526020016003820160009054906101000a900473ffffffffffffffffffffffffffffffffffffffff1673ffffffffffffffffffffffffffffffffffffffff1673ffffffffffffffffffffffffffffffffffffffff1681526020016003820160149054906101000a900460ff161515151581525050905080600001519450806020015193508060400151925080606001519150509193509193565b828054600181600116156101000203166002900490600052602060002090601f016020900481019282601f10610f9757805160ff1916838001178555610fc5565b82800160010185558215610fc5579182015b82811115610fc4578251825591602001919060010190610fa9565b5b509050610fd2919061101e565b5090565b60a060405190810160405280606081526020016060815260200160608152602001600073ffffffffffffffffffffffffffffffffffffffff1681526020016000151581525090565b61104091905b8082111561103c576000816000905550600101611024565b5090565b9056fea165627a7a723058207e3fbded7878e7f0f7e1759cfb5001a8a7dc5a255833da25ff81e730cd1477220029",
  "source": "pragma solidity >=0.5.0 <0.6.0;\n\ncontract Prototype {\n  struct Data {\n    string pubKey;\n    string str1;\n    string str2;\n    address addr;\n    bool isSet;\n  }\n\n  event NewDataAdded(address signer, string pubKey, string str1, string str2, address addr, string hash);\n\n  mapping (string => Data) myData;\n\n  function stringToBytes32(string memory source) private pure returns (bytes32 result) {\n        bytes memory tempEmptyStringTest = bytes(source);\n        if (tempEmptyStringTest.length == 0) {\n            return 0x0;\n        }\n        assembly {\n        result := mload(add(source, 32))\n        }\n    }\n\n\n  function approve (string memory _pubKey, string memory _str1, string memory _str2, address _addr, string memory _hash, bytes32 r, bytes32 s, uint8 v, bytes32 _signatureHash) public {\n    require(ecrecover(_signatureHash, v, r, s) == msg.sender, \"Invalid signature\");\n    require(myData[_hash].isSet == false, \"Key already exists!\");\n    myData[_hash] = Data(_pubKey, _str1, _str2, _addr, true);\n    emit NewDataAdded(msg.sender, _pubKey, _str1, _str2, _addr, _hash);\n  }\n\n  function getData (string memory _hash) public view returns (string memory pubKey, string memory str1, string memory str2, address addr) {\n    Data memory retVal;\n    retVal = myData[_hash];\n    pubKey = retVal.pubKey;\n    str1 = retVal.str1;\n    str2 = retVal.str2;\n    addr = retVal.addr;\n   }\n\n   function recover(bytes32 _hash, bytes32 r, bytes32 s, uint8 v) public returns (address sign) {\n    sign = ecrecover(_hash, v, r, s);\n  }\n\n}",
  "sourcePath": "/Users/andrei/Documents/GitHub/Node.js-prototype/contracts/Prototype.sol",
  "compiler": {
    "name": "solc",
    "version": "0.5.0+commit.1d4f565a.Emscripten.clang"
  },
  "schemaVersion": "3.0.16",
  "updatedAt": "2019-10-17T10:01:38.476Z",
  "devdoc": {
    "methods": {}
  },
  "userdoc": {
    "methods": {}
  }
}