{
  "contractName": "Prototype",
  "abi": [
    {
      "anonymous": false,
      "inputs": [
        {
          "indexed": false,
          "name": "signer",
          "type": "address"
        },
        {
          "indexed": false,
          "name": "pubKey",
          "type": "string"
        },
        {
          "indexed": false,
          "name": "str1",
          "type": "string"
        },
        {
          "indexed": false,
          "name": "str2",
          "type": "string"
        },
        {
          "indexed": false,
          "name": "addr",
          "type": "address"
        },
        {
          "indexed": false,
          "name": "hash",
          "type": "string"
        }
      ],
      "name": "NewDataAdded",
      "type": "event"
    },
    {
      "constant": true,
      "inputs": [
        {
          "name": "_hash",
          "type": "bytes32"
        },
        {
          "name": "_signature",
          "type": "bytes"
        }
      ],
      "name": "recover",
      "outputs": [
        {
          "name": "",
          "type": "address"
        }
      ],
      "payable": false,
      "stateMutability": "pure",
      "type": "function"
    },
    {
      "constant": false,
      "inputs": [
        {
          "name": "_pubKey",
          "type": "string"
        },
        {
          "name": "_str1",
          "type": "string"
        },
        {
          "name": "_str2",
          "type": "string"
        },
        {
          "name": "_addr",
          "type": "address"
        },
        {
          "name": "_hash",
          "type": "string"
        }
      ],
      "name": "approve",
      "outputs": [],
      "payable": false,
      "stateMutability": "nonpayable",
      "type": "function"
    },
    {
      "constant": true,
      "inputs": [
        {
          "name": "_hash",
          "type": "string"
        }
      ],
      "name": "getData",
      "outputs": [
        {
          "name": "pubKey",
          "type": "string"
        },
        {
          "name": "str1",
          "type": "string"
        },
        {
          "name": "str2",
          "type": "string"
        },
        {
          "name": "addr",
          "type": "address"
        }
      ],
      "payable": false,
      "stateMutability": "view",
      "type": "function"
    }
  ],
  "bytecode": "0x608060405234801561001057600080fd5b5061105d806100206000396000f3fe608060405260043610610057576000357c0100000000000000000000000000000000000000000000000000000000900463ffffffff16806319045a251461005c57806326a793851461016e578063ae55c8881461041b575b600080fd5b34801561006857600080fd5b5061012c6004803603604081101561007f57600080fd5b8101908080359060200190929190803590602001906401000000008111156100a657600080fd5b8201836020820111156100b857600080fd5b803590602001918460018302840111640100000000831117156100da57600080fd5b91908080601f016020809104026020016040519081016040528093929190818152602001838380828437600081840152601f19601f820116905080830192505050505050509192919290505050610667565b604051808273ffffffffffffffffffffffffffffffffffffffff1673ffffffffffffffffffffffffffffffffffffffff16815260200191505060405180910390f35b34801561017a57600080fd5b50610419600480360360a081101561019157600080fd5b81019080803590602001906401000000008111156101ae57600080fd5b8201836020820111156101c057600080fd5b803590602001918460018302840111640100000000831117156101e257600080fd5b91908080601f016020809104026020016040519081016040528093929190818152602001838380828437600081840152601f19601f8201169050808301925050505050505091929192908035906020019064010000000081111561024557600080fd5b82018360208201111561025757600080fd5b8035906020019184600183028401116401000000008311171561027957600080fd5b91908080601f016020809104026020016040519081016040528093929190818152602001838380828437600081840152601f19601f820116905080830192505050505050509192919290803590602001906401000000008111156102dc57600080fd5b8201836020820111156102ee57600080fd5b8035906020019184600183028401116401000000008311171561031057600080fd5b91908080601f016020809104026020016040519081016040528093929190818152602001838380828437600081840152601f19601f820116905080830192505050505050509192919290803573ffffffffffffffffffffffffffffffffffffffff1690602001909291908035906020019064010000000081111561039357600080fd5b8201836020820111156103a557600080fd5b803590602001918460018302840111640100000000831117156103c757600080fd5b91908080601f016020809104026020016040519081016040528093929190818152602001838380828437600081840152601f19601f820116905080830192505050505050509192919290505050610684565b005b34801561042757600080fd5b506104e16004803603602081101561043e57600080fd5b810190808035906020019064010000000081111561045b57600080fd5b82018360208201111561046d57600080fd5b8035906020019184600183028401116401000000008311171561048f57600080fd5b91908080601f016020809104026020016040519081016040528093929190818152602001838380828437600081840152601f19601f820116905080830192505050505050509192919290505050610b3a565b604051808060200180602001806020018573ffffffffffffffffffffffffffffffffffffffff1673ffffffffffffffffffffffffffffffffffffffff168152602001848103845288818151815260200191508051906020019080838360005b8381101561055b578082015181840152602081019050610540565b50505050905090810190601f1680156105885780820380516001836020036101000a031916815260200191505b50848103835287818151815260200191508051906020019080838360005b838110156105c15780820151818401526020810190506105a6565b50505050905090810190601f1680156105ee5780820380516001836020036101000a031916815260200191505b50848103825286818151815260200191508051906020019080838360005b8381101561062757808201518184015260208101905061060c565b50505050905090810190601f1680156106545780820380516001836020036101000a031916815260200191505b5097505050505050505060405180910390f35b600061067c8284610e3d90919063ffffffff16565b905092915050565b600015156000826040518082805190602001908083835b6020831015156106c0578051825260208201915060208101905060208303925061069b565b6001836020036101000a038019825116818451168082178552505050505050905001915050908152602001604051809103902060030160149054906101000a900460ff16151514151561077b576040517f08c379a00000000000000000000000000000000000000000000000000000000081526004018080602001828103825260138152602001807f4b657920616c726561647920657869737473210000000000000000000000000081525060200191505060405180910390fd5b60a0604051908101604052808681526020018581526020018481526020018373ffffffffffffffffffffffffffffffffffffffff168152602001600115158152506000826040518082805190602001908083835b6020831015156107f457805182526020820191506020810190506020830392506107cf565b6001836020036101000a03801982511681845116808217855250505050505090500191505090815260200160405180910390206000820151816000019080519060200190610843929190610f44565b506020820151816001019080519060200190610860929190610f44565b50604082015181600201908051906020019061087d929190610f44565b5060608201518160030160006101000a81548173ffffffffffffffffffffffffffffffffffffffff021916908373ffffffffffffffffffffffffffffffffffffffff16021790555060808201518160030160146101000a81548160ff0219169083151502179055509050507ff83c5d8e5fba81d7242da3d32f309b06a91f207fcea54ce828663a1eda1c8266338686868686604051808773ffffffffffffffffffffffffffffffffffffffff1673ffffffffffffffffffffffffffffffffffffffff1681526020018060200180602001806020018673ffffffffffffffffffffffffffffffffffffffff1673ffffffffffffffffffffffffffffffffffffffff1681526020018060200185810385528a818151815260200191508051906020019080838360005b838110156109bf5780820151818401526020810190506109a4565b50505050905090810190601f1680156109ec5780820380516001836020036101000a031916815260200191505b50858103845289818151815260200191508051906020019080838360005b83811015610a25578082015181840152602081019050610a0a565b50505050905090810190601f168015610a525780820380516001836020036101000a031916815260200191505b50858103835288818151815260200191508051906020019080838360005b83811015610a8b578082015181840152602081019050610a70565b50505050905090810190601f168015610ab85780820380516001836020036101000a031916815260200191505b50858103825286818151815260200191508051906020019080838360005b83811015610af1578082015181840152602081019050610ad6565b50505050905090810190601f168015610b1e5780820380516001836020036101000a031916815260200191505b509a505050505050505050505060405180910390a15050505050565b60608060606000610b49610fc4565b6000866040518082805190602001908083835b602083101515610b815780518252602082019150602081019050602083039250610b5c565b6001836020036101000a038019825116818451168082178552505050505050905001915050908152602001604051809103902060a06040519081016040529081600082018054600181600116156101000203166002900480601f016020809104026020016040519081016040528092919081815260200182805460018160011615610100020316600290048015610c595780601f10610c2e57610100808354040283529160200191610c59565b820191906000526020600020905b815481529060010190602001808311610c3c57829003601f168201915b50505050508152602001600182018054600181600116156101000203166002900480601f016020809104026020016040519081016040528092919081815260200182805460018160011615610100020316600290048015610cfb5780601f10610cd057610100808354040283529160200191610cfb565b820191906000526020600020905b815481529060010190602001808311610cde57829003601f168201915b50505050508152602001600282018054600181600116156101000203166002900480601f016020809104026020016040519081016040528092919081815260200182805460018160011615610100020316600290048015610d9d5780601f10610d7257610100808354040283529160200191610d9d565b820191906000526020600020905b815481529060010190602001808311610d8057829003601f168201915b505050505081526020016003820160009054906101000a900473ffffffffffffffffffffffffffffffffffffffff1673ffffffffffffffffffffffffffffffffffffffff1673ffffffffffffffffffffffffffffffffffffffff1681526020016003820160149054906101000a900460ff161515151581525050905080600001519450806020015193508060400151925080606001519150509193509193565b600060418251141515610e535760009050610f3e565b60008060006020850151925060408501519150606085015160001a90507f7fffffffffffffffffffffffffffffff5d576e7357a4501ddfe92f46681b20a082600190041115610ea85760009350505050610f3e565b601b8160ff1614158015610ec05750601c8160ff1614155b15610ed15760009350505050610f3e565b60018682858560405160008152602001604052604051808581526020018460ff1660ff1681526020018381526020018281526020019450505050506020604051602081039080840390855afa158015610f2e573d6000803e3d6000fd5b5050506020604051035193505050505b92915050565b828054600181600116156101000203166002900490600052602060002090601f016020900481019282601f10610f8557805160ff1916838001178555610fb3565b82800160010185558215610fb3579182015b82811115610fb2578251825591602001919060010190610f97565b5b509050610fc0919061100c565b5090565b60a060405190810160405280606081526020016060815260200160608152602001600073ffffffffffffffffffffffffffffffffffffffff1681526020016000151581525090565b61102e91905b8082111561102a576000816000905550600101611012565b5090565b9056fea165627a7a72305820471abdbca9907aac15e31e881239dbb56b1bc58c73da87c83f6b73659308ce7b0029",
  "source": "pragma solidity >=0.5.0 <0.6.0;\n\nimport \"openzeppelin-solidity/contracts/cryptography/ECDSA.sol\";\n\ncontract Prototype {\n  // approve, takes in a public key, a few string fields name, address, hash. \n  // Then a signature of the public key they can be verified\n  using ECDSA for bytes32;\n\n  struct Data {\n    string pubKey;\n    string str1;\n    string str2;\n    address addr;\n    bool isSet;\n  }\n\n  event NewDataAdded(address signer, string pubKey, string str1, string str2, address addr, string hash);\n\n  mapping (string => Data) myData;\n\n  function recover (bytes32 _hash, bytes memory _signature) public pure returns (address) {\n        return _hash.recover(_signature);\n  }\n\n  function approve (string memory _pubKey, string memory _str1, string memory _str2, address _addr, string memory _hash) public {\n      require(myData[_hash].isSet == false, \"Key already exists!\");\n      myData[_hash] = Data(_pubKey, _str1, _str2, _addr, true);\n      emit NewDataAdded(msg.sender, _pubKey, _str1, _str2, _addr, _hash);\n    }\n\n  function getData (string memory _hash) public view returns (string memory pubKey, string memory str1, string memory str2, address addr) {\n    Data memory retVal;\n    retVal = myData[_hash];\n    pubKey = retVal.pubKey;\n    str1 = retVal.str1;\n    str2 = retVal.str2;\n    addr = retVal.addr;\n   }\n\n}",
  "sourcePath": "/Users/andrei/Documents/GitHub/Node.js-prototype/contracts/Prototype.sol",
  "compiler": {
    "name": "solc",
    "version": "0.5.0+commit.1d4f565a.Emscripten.clang"
  },
  "schemaVersion": "3.0.16",
  "updatedAt": "2019-10-17T06:58:35.205Z",
  "devdoc": {
    "methods": {}
  },
  "userdoc": {
    "methods": {}
  }
}