{
  "contractName": "Prototype",
  "abi": [
    {
      "anonymous": false,
      "inputs": [
        {
          "indexed": false,
          "name": "signer",
          "type": "address"
        },
        {
          "indexed": false,
          "name": "pubKey",
          "type": "string"
        },
        {
          "indexed": false,
          "name": "str1",
          "type": "string"
        },
        {
          "indexed": false,
          "name": "str2",
          "type": "string"
        },
        {
          "indexed": false,
          "name": "addr",
          "type": "address"
        },
        {
          "indexed": false,
          "name": "hash",
          "type": "string"
        }
      ],
      "name": "NewDataAdded",
      "type": "event"
    },
    {
      "constant": false,
      "inputs": [
        {
          "name": "_pubKey",
          "type": "string"
        },
        {
          "name": "_str1",
          "type": "string"
        },
        {
          "name": "_str2",
          "type": "string"
        },
        {
          "name": "_addr",
          "type": "address"
        },
        {
          "name": "_hash",
          "type": "string"
        },
        {
          "name": "r",
          "type": "bytes32"
        },
        {
          "name": "s",
          "type": "bytes32"
        },
        {
          "name": "v",
          "type": "uint8"
        },
        {
          "name": "signatureHash",
          "type": "string"
        }
      ],
      "name": "approve",
      "outputs": [],
      "payable": false,
      "stateMutability": "nonpayable",
      "type": "function"
    },
    {
      "constant": true,
      "inputs": [
        {
          "name": "_hash",
          "type": "string"
        }
      ],
      "name": "getData",
      "outputs": [
        {
          "name": "pubKey",
          "type": "string"
        },
        {
          "name": "str1",
          "type": "string"
        },
        {
          "name": "str2",
          "type": "string"
        },
        {
          "name": "addr",
          "type": "address"
        }
      ],
      "payable": false,
      "stateMutability": "view",
      "type": "function"
    }
  ],
  "bytecode": "0x608060405234801561001057600080fd5b50611016806100206000396000f3fe60806040526004361061004c576000357c0100000000000000000000000000000000000000000000000000000000900463ffffffff16806348d8fa4b14610051578063ae55c888146103b7575b600080fd5b34801561005d57600080fd5b506103b5600480360361012081101561007557600080fd5b810190808035906020019064010000000081111561009257600080fd5b8201836020820111156100a457600080fd5b803590602001918460018302840111640100000000831117156100c657600080fd5b91908080601f016020809104026020016040519081016040528093929190818152602001838380828437600081840152601f19601f8201169050808301925050505050505091929192908035906020019064010000000081111561012957600080fd5b82018360208201111561013b57600080fd5b8035906020019184600183028401116401000000008311171561015d57600080fd5b91908080601f016020809104026020016040519081016040528093929190818152602001838380828437600081840152601f19601f820116905080830192505050505050509192919290803590602001906401000000008111156101c057600080fd5b8201836020820111156101d257600080fd5b803590602001918460018302840111640100000000831117156101f457600080fd5b91908080601f016020809104026020016040519081016040528093929190818152602001838380828437600081840152601f19601f820116905080830192505050505050509192919290803573ffffffffffffffffffffffffffffffffffffffff1690602001909291908035906020019064010000000081111561027757600080fd5b82018360208201111561028957600080fd5b803590602001918460018302840111640100000000831117156102ab57600080fd5b91908080601f016020809104026020016040519081016040528093929190818152602001838380828437600081840152601f19601f8201169050808301925050505050505091929192908035906020019092919080359060200190929190803560ff1690602001909291908035906020019064010000000081111561032f57600080fd5b82018360208201111561034157600080fd5b8035906020019184600183028401116401000000008311171561036357600080fd5b91908080601f016020809104026020016040519081016040528093929190818152602001838380828437600081840152601f19601f820116905080830192505050505050509192919290505050610603565b005b3480156103c357600080fd5b5061047d600480360360208110156103da57600080fd5b81019080803590602001906401000000008111156103f757600080fd5b82018360208201111561040957600080fd5b8035906020019184600183028401116401000000008311171561042b57600080fd5b91908080601f016020809104026020016040519081016040528093929190818152602001838380828437600081840152601f19601f820116905080830192505050505050509192919290505050610bce565b604051808060200180602001806020018573ffffffffffffffffffffffffffffffffffffffff1673ffffffffffffffffffffffffffffffffffffffff168152602001848103845288818151815260200191508051906020019080838360005b838110156104f75780820151818401526020810190506104dc565b50505050905090810190601f1680156105245780820380516001836020036101000a031916815260200191505b50848103835287818151815260200191508051906020019080838360005b8381101561055d578082015181840152602081019050610542565b50505050905090810190601f16801561058a5780820380516001836020036101000a031916815260200191505b50848103825286818151815260200191508051906020019080838360005b838110156105c35780820151818401526020810190506105a8565b50505050905090810190601f1680156105f05780820380516001836020036101000a031916815260200191505b5097505050505050505060405180910390f35b3373ffffffffffffffffffffffffffffffffffffffff16600161062583610ed1565b84878760405160008152602001604052604051808581526020018460ff1660ff1681526020018381526020018281526020019450505050506020604051602081039080840390855afa15801561067f573d6000803e3d6000fd5b5050506020604051035173ffffffffffffffffffffffffffffffffffffffff16141515610714576040517f08c379a00000000000000000000000000000000000000000000000000000000081526004018080602001828103825260118152602001807f496e76616c6964207369676e617475726500000000000000000000000000000081525060200191505060405180910390fd5b600015156000866040518082805190602001908083835b602083101515610750578051825260208201915060208101905060208303925061072b565b6001836020036101000a038019825116818451168082178552505050505050905001915050908152602001604051809103902060030160149054906101000a900460ff16151514151561080b576040517f08c379a00000000000000000000000000000000000000000000000000000000081526004018080602001828103825260138152602001807f4b657920616c726561647920657869737473210000000000000000000000000081525060200191505060405180910390fd5b60a0604051908101604052808a81526020018981526020018881526020018773ffffffffffffffffffffffffffffffffffffffff168152602001600115158152506000866040518082805190602001908083835b602083101515610884578051825260208201915060208101905060208303925061085f565b6001836020036101000a038019825116818451168082178552505050505050905001915050908152602001604051809103902060008201518160000190805190602001906108d3929190610efd565b5060208201518160010190805190602001906108f0929190610efd565b50604082015181600201908051906020019061090d929190610efd565b5060608201518160030160006101000a81548173ffffffffffffffffffffffffffffffffffffffff021916908373ffffffffffffffffffffffffffffffffffffffff16021790555060808201518160030160146101000a81548160ff0219169083151502179055509050507ff83c5d8e5fba81d7242da3d32f309b06a91f207fcea54ce828663a1eda1c8266338a8a8a8a8a604051808773ffffffffffffffffffffffffffffffffffffffff1673ffffffffffffffffffffffffffffffffffffffff1681526020018060200180602001806020018673ffffffffffffffffffffffffffffffffffffffff1673ffffffffffffffffffffffffffffffffffffffff1681526020018060200185810385528a818151815260200191508051906020019080838360005b83811015610a4f578082015181840152602081019050610a34565b50505050905090810190601f168015610a7c5780820380516001836020036101000a031916815260200191505b50858103845289818151815260200191508051906020019080838360005b83811015610ab5578082015181840152602081019050610a9a565b50505050905090810190601f168015610ae25780820380516001836020036101000a031916815260200191505b50858103835288818151815260200191508051906020019080838360005b83811015610b1b578082015181840152602081019050610b00565b50505050905090810190601f168015610b485780820380516001836020036101000a031916815260200191505b50858103825286818151815260200191508051906020019080838360005b83811015610b81578082015181840152602081019050610b66565b50505050905090810190601f168015610bae5780820380516001836020036101000a031916815260200191505b509a505050505050505050505060405180910390a1505050505050505050565b60608060606000610bdd610f7d565b6000866040518082805190602001908083835b602083101515610c155780518252602082019150602081019050602083039250610bf0565b6001836020036101000a038019825116818451168082178552505050505050905001915050908152602001604051809103902060a06040519081016040529081600082018054600181600116156101000203166002900480601f016020809104026020016040519081016040528092919081815260200182805460018160011615610100020316600290048015610ced5780601f10610cc257610100808354040283529160200191610ced565b820191906000526020600020905b815481529060010190602001808311610cd057829003601f168201915b50505050508152602001600182018054600181600116156101000203166002900480601f016020809104026020016040519081016040528092919081815260200182805460018160011615610100020316600290048015610d8f5780601f10610d6457610100808354040283529160200191610d8f565b820191906000526020600020905b815481529060010190602001808311610d7257829003601f168201915b50505050508152602001600282018054600181600116156101000203166002900480601f016020809104026020016040519081016040528092919081815260200182805460018160011615610100020316600290048015610e315780601f10610e0657610100808354040283529160200191610e31565b820191906000526020600020905b815481529060010190602001808311610e1457829003601f168201915b505050505081526020016003820160009054906101000a900473ffffffffffffffffffffffffffffffffffffffff1673ffffffffffffffffffffffffffffffffffffffff1673ffffffffffffffffffffffffffffffffffffffff1681526020016003820160149054906101000a900460ff161515151581525050905080600001519450806020015193508060400151925080606001519150509193509193565b60006060829050600081511415610eef576000600102915050610ef8565b60208301519150505b919050565b828054600181600116156101000203166002900490600052602060002090601f016020900481019282601f10610f3e57805160ff1916838001178555610f6c565b82800160010185558215610f6c579182015b82811115610f6b578251825591602001919060010190610f50565b5b509050610f799190610fc5565b5090565b60a060405190810160405280606081526020016060815260200160608152602001600073ffffffffffffffffffffffffffffffffffffffff1681526020016000151581525090565b610fe791905b80821115610fe3576000816000905550600101610fcb565b5090565b9056fea165627a7a72305820994d2e558591a9373201053c37cb080fc4aef66f4e3ce236d99467cf4c9df4950029",
  "source": "pragma solidity >=0.5.0 <0.6.0;\n\ncontract Prototype {\n  struct Data {\n    string pubKey;\n    string str1;\n    string str2;\n    address addr;\n    bool isSet;\n  }\n\n  event NewDataAdded(address signer, string pubKey, string str1, string str2, address addr, string hash);\n\n  mapping (string => Data) myData;\n\n  function stringToBytes32(string memory source) private pure returns (bytes32 result) {\n        bytes memory tempEmptyStringTest = bytes(source);\n        if (tempEmptyStringTest.length == 0) {\n            return 0x0;\n        }\n        assembly {\n        result := mload(add(source, 32))\n        }\n    }\n\n\n  function approve (string memory _pubKey, string memory _str1, string memory _str2, address _addr, string memory _hash, bytes32 r, bytes32 s, uint8 v, string memory signatureHash) public {\n    require(ecrecover(stringToBytes32(signatureHash), v, r, s) == msg.sender, \"Invalid signature\");\n    require(myData[_hash].isSet == false, \"Key already exists!\");\n    myData[_hash] = Data(_pubKey, _str1, _str2, _addr, true);\n    emit NewDataAdded(msg.sender, _pubKey, _str1, _str2, _addr, _hash);\n  }\n\n  function getData (string memory _hash) public view returns (string memory pubKey, string memory str1, string memory str2, address addr) {\n    Data memory retVal;\n    retVal = myData[_hash];\n    pubKey = retVal.pubKey;\n    str1 = retVal.str1;\n    str2 = retVal.str2;\n    addr = retVal.addr;\n   }\n}",
  "sourcePath": "/Users/andrei/Documents/GitHub/Node.js-prototype/contracts/Prototype.sol",
  "compiler": {
    "name": "solc",
    "version": "0.5.0+commit.1d4f565a.Emscripten.clang"
  },
  "schemaVersion": "3.0.16",
  "updatedAt": "2019-10-17T09:20:52.992Z",
  "devdoc": {
    "methods": {}
  },
  "userdoc": {
    "methods": {}
  }
}