{
  "contractName": "Prototype",
  "abi": [
    {
      "constant": true,
      "inputs": [],
      "name": "ADMIN",
      "outputs": [
        {
          "name": "",
          "type": "address"
        }
      ],
      "payable": false,
      "stateMutability": "view",
      "type": "function"
    },
    {
      "inputs": [
        {
          "name": "_admin",
          "type": "address"
        }
      ],
      "payable": false,
      "stateMutability": "nonpayable",
      "type": "constructor"
    },
    {
      "anonymous": false,
      "inputs": [
        {
          "indexed": false,
          "name": "approver",
          "type": "address"
        },
        {
          "indexed": false,
          "name": "pubKey",
          "type": "string"
        },
        {
          "indexed": false,
          "name": "str1",
          "type": "string"
        },
        {
          "indexed": false,
          "name": "str2",
          "type": "string"
        },
        {
          "indexed": false,
          "name": "addr",
          "type": "address"
        },
        {
          "indexed": false,
          "name": "hash",
          "type": "bytes32"
        }
      ],
      "name": "NewDataAdded",
      "type": "event"
    },
    {
      "constant": false,
      "inputs": [
        {
          "name": "_pubKey",
          "type": "string"
        },
        {
          "name": "_str1",
          "type": "string"
        },
        {
          "name": "_str2",
          "type": "string"
        },
        {
          "name": "_addr",
          "type": "address"
        },
        {
          "name": "_hash",
          "type": "bytes32"
        },
        {
          "name": "r",
          "type": "bytes32"
        },
        {
          "name": "s",
          "type": "bytes32"
        },
        {
          "name": "v",
          "type": "uint8"
        }
      ],
      "name": "approve",
      "outputs": [],
      "payable": false,
      "stateMutability": "nonpayable",
      "type": "function"
    },
    {
      "constant": true,
      "inputs": [
        {
          "name": "_hash",
          "type": "bytes32"
        }
      ],
      "name": "getData",
      "outputs": [
        {
          "name": "pubKey",
          "type": "string"
        },
        {
          "name": "str1",
          "type": "string"
        },
        {
          "name": "str2",
          "type": "string"
        },
        {
          "name": "addr",
          "type": "address"
        }
      ],
      "payable": false,
      "stateMutability": "view",
      "type": "function"
    }
  ],
  "bytecode": "0x608060405234801561001057600080fd5b50604051602080610dfc8339810180604052602081101561003057600080fd5b8101908080519060200190929190505050806000806101000a81548173ffffffffffffffffffffffffffffffffffffffff021916908373ffffffffffffffffffffffffffffffffffffffff16021790555050610d6b806100916000396000f3fe608060405260043610610057576000357c0100000000000000000000000000000000000000000000000000000000900463ffffffff1680632a0acc6a1461005c5780632a719761146100b357806354f6127f146102f5575b600080fd5b34801561006857600080fd5b506100716104b4565b604051808273ffffffffffffffffffffffffffffffffffffffff1673ffffffffffffffffffffffffffffffffffffffff16815260200191505060405180910390f35b3480156100bf57600080fd5b506102f360048036036101008110156100d757600080fd5b81019080803590602001906401000000008111156100f457600080fd5b82018360208201111561010657600080fd5b8035906020019184600183028401116401000000008311171561012857600080fd5b91908080601f016020809104026020016040519081016040528093929190818152602001838380828437600081840152601f19601f8201169050808301925050505050505091929192908035906020019064010000000081111561018b57600080fd5b82018360208201111561019d57600080fd5b803590602001918460018302840111640100000000831117156101bf57600080fd5b91908080601f016020809104026020016040519081016040528093929190818152602001838380828437600081840152601f19601f8201169050808301925050505050505091929192908035906020019064010000000081111561022257600080fd5b82018360208201111561023457600080fd5b8035906020019184600183028401116401000000008311171561025657600080fd5b91908080601f016020809104026020016040519081016040528093929190818152602001838380828437600081840152601f19601f820116905080830192505050505050509192919290803573ffffffffffffffffffffffffffffffffffffffff169060200190929190803590602001909291908035906020019092919080359060200190929190803560ff1690602001909291905050506104d9565b005b34801561030157600080fd5b5061032e6004803603602081101561031857600080fd5b81019080803590602001909291905050506109a7565b604051808060200180602001806020018573ffffffffffffffffffffffffffffffffffffffff1673ffffffffffffffffffffffffffffffffffffffff168152602001848103845288818151815260200191508051906020019080838360005b838110156103a857808201518184015260208101905061038d565b50505050905090810190601f1680156103d55780820380516001836020036101000a031916815260200191505b50848103835287818151815260200191508051906020019080838360005b8381101561040e5780820151818401526020810190506103f3565b50505050905090810190601f16801561043b5780820380516001836020036101000a031916815260200191505b50848103825286818151815260200191508051906020019080838360005b83811015610474578082015181840152602081019050610459565b50505050905090810190601f1680156104a15780820380516001836020036101000a031916815260200191505b5097505050505050505060405180910390f35b6000809054906101000a900473ffffffffffffffffffffffffffffffffffffffff1681565b6000809054906101000a900473ffffffffffffffffffffffffffffffffffffffff1673ffffffffffffffffffffffffffffffffffffffff1660018583868660405160008152602001604052604051808581526020018460ff1660ff1681526020018381526020018281526020019450505050506020604051602081039080840390855afa15801561056e573d6000803e3d6000fd5b5050506020604051035173ffffffffffffffffffffffffffffffffffffffff16141515610603576040517f08c379a00000000000000000000000000000000000000000000000000000000081526004018080602001828103825260118152602001807f496e76616c6964207369676e617475726500000000000000000000000000000081525060200191505060405180910390fd5b600015156001600086815260200190815260200160002060030160149054906101000a900460ff1615151415156106a2576040517f08c379a00000000000000000000000000000000000000000000000000000000081526004018080602001828103825260138152602001807f4b657920616c726561647920657869737473210000000000000000000000000081525060200191505060405180910390fd5b60a0604051908101604052808981526020018881526020018781526020018673ffffffffffffffffffffffffffffffffffffffff16815260200160011515815250600160008681526020019081526020016000206000820151816000019080519060200190610712929190610c52565b50602082015181600101908051906020019061072f929190610c52565b50604082015181600201908051906020019061074c929190610c52565b5060608201518160030160006101000a81548173ffffffffffffffffffffffffffffffffffffffff021916908373ffffffffffffffffffffffffffffffffffffffff16021790555060808201518160030160146101000a81548160ff0219169083151502179055509050507febcb5c953c8b1812a6c1f426d903d3df1424a73c098484681eea38569562f3a2338989898989604051808773ffffffffffffffffffffffffffffffffffffffff1673ffffffffffffffffffffffffffffffffffffffff1681526020018060200180602001806020018673ffffffffffffffffffffffffffffffffffffffff1673ffffffffffffffffffffffffffffffffffffffff168152602001858152602001848103845289818151815260200191508051906020019080838360005b83811015610890578082015181840152602081019050610875565b50505050905090810190601f1680156108bd5780820380516001836020036101000a031916815260200191505b50848103835288818151815260200191508051906020019080838360005b838110156108f65780820151818401526020810190506108db565b50505050905090810190601f1680156109235780820380516001836020036101000a031916815260200191505b50848103825287818151815260200191508051906020019080838360005b8381101561095c578082015181840152602081019050610941565b50505050905090810190601f1680156109895780820380516001836020036101000a031916815260200191505b50995050505050505050505060405180910390a15050505050505050565b606080606060006109b6610cd2565b6001600087815260200190815260200160002060a06040519081016040529081600082018054600181600116156101000203166002900480601f016020809104026020016040519081016040528092919081815260200182805460018160011615610100020316600290048015610a6e5780601f10610a4357610100808354040283529160200191610a6e565b820191906000526020600020905b815481529060010190602001808311610a5157829003601f168201915b50505050508152602001600182018054600181600116156101000203166002900480601f016020809104026020016040519081016040528092919081815260200182805460018160011615610100020316600290048015610b105780601f10610ae557610100808354040283529160200191610b10565b820191906000526020600020905b815481529060010190602001808311610af357829003601f168201915b50505050508152602001600282018054600181600116156101000203166002900480601f016020809104026020016040519081016040528092919081815260200182805460018160011615610100020316600290048015610bb25780601f10610b8757610100808354040283529160200191610bb2565b820191906000526020600020905b815481529060010190602001808311610b9557829003601f168201915b505050505081526020016003820160009054906101000a900473ffffffffffffffffffffffffffffffffffffffff1673ffffffffffffffffffffffffffffffffffffffff1673ffffffffffffffffffffffffffffffffffffffff1681526020016003820160149054906101000a900460ff161515151581525050905080600001519450806020015193508060400151925080606001519150509193509193565b828054600181600116156101000203166002900490600052602060002090601f016020900481019282601f10610c9357805160ff1916838001178555610cc1565b82800160010185558215610cc1579182015b82811115610cc0578251825591602001919060010190610ca5565b5b509050610cce9190610d1a565b5090565b60a060405190810160405280606081526020016060815260200160608152602001600073ffffffffffffffffffffffffffffffffffffffff1681526020016000151581525090565b610d3c91905b80821115610d38576000816000905550600101610d20565b5090565b9056fea165627a7a7230582091091aea6b4f551f8804e3cf9e1d7f91374b31c483ff3dbaade2ccf441b2ba850029",
  "source": "pragma solidity >=0.5.0 <0.6.0;\n\ncontract Prototype {\n  struct Data {\n    string pubKey;\n    string str1;\n    string str2;\n    address addr;\n    bool isSet;\n  }\n  address public ADMIN;\n  event NewDataAdded(address approver, string pubKey, string str1, string str2, address addr, bytes32 hash);\n  mapping (bytes32 => Data) myData;\n\n  constructor(address _admin) public {\n    ADMIN = _admin;\n  }\n\n  function approve (string memory _pubKey, string memory _str1, string memory _str2, address _addr, bytes32 _hash, bytes32 r, bytes32 s, uint8 v) public {\n    require(ecrecover(_hash, v, r, s) == address(ADMIN), \"Invalid signature\");\n    require(myData[_hash].isSet == false, \"Key already exists!\");\n    myData[_hash] = Data(_pubKey, _str1, _str2, _addr, true);\n    emit NewDataAdded(msg.sender, _pubKey, _str1, _str2, _addr, _hash);\n  }\n\n  function getData (bytes32 _hash) public view returns (string memory pubKey, string memory str1, string memory str2, address addr) {\n    Data memory retVal;\n    retVal = myData[_hash];\n    pubKey = retVal.pubKey;\n    str1 = retVal.str1;\n    str2 = retVal.str2;\n    addr = retVal.addr;\n   }\n}\n",
  "sourcePath": "/Users/andrei/Documents/GitHub/Node.js-prototype/contracts/Prototype.sol",
  "compiler": {
    "name": "solc",
    "version": "0.5.0+commit.1d4f565a.Emscripten.clang"
  },
  "schemaVersion": "3.0.16",
  "updatedAt": "2019-10-17T13:45:36.290Z",
  "devdoc": {
    "methods": {}
  },
  "userdoc": {
    "methods": {}
  }
}