{
  "contractName": "Prototype",
  "abi": [
    {
      "constant": true,
      "inputs": [
        {
          "name": "_hash",
          "type": "bytes32"
        },
        {
          "name": "_signature",
          "type": "bytes"
        }
      ],
      "name": "recover",
      "outputs": [
        {
          "name": "",
          "type": "address"
        }
      ],
      "payable": false,
      "stateMutability": "pure",
      "type": "function"
    },
    {
      "constant": false,
      "inputs": [
        {
          "name": "_pubKey",
          "type": "string"
        },
        {
          "name": "_str1",
          "type": "string"
        },
        {
          "name": "_str2",
          "type": "string"
        },
        {
          "name": "_addr",
          "type": "address"
        },
        {
          "name": "hash",
          "type": "bytes32"
        }
      ],
      "name": "approve",
      "outputs": [],
      "payable": false,
      "stateMutability": "nonpayable",
      "type": "function"
    }
  ],
  "bytecode": "0x608060405234801561001057600080fd5b506104da806100206000396000f3fe60806040526004361061004c576000357c0100000000000000000000000000000000000000000000000000000000900463ffffffff16806319045a2514610051578063d3a3fab214610163575b600080fd5b34801561005d57600080fd5b506101216004803603604081101561007457600080fd5b81019080803590602001909291908035906020019064010000000081111561009b57600080fd5b8201836020820111156100ad57600080fd5b803590602001918460018302840111640100000000831117156100cf57600080fd5b91908080601f016020809104026020016040519081016040528093929190818152602001838380828437600081840152601f19601f820116905080830192505050505050509192919290505050610383565b604051808273ffffffffffffffffffffffffffffffffffffffff1673ffffffffffffffffffffffffffffffffffffffff16815260200191505060405180910390f35b34801561016f57600080fd5b50610381600480360360a081101561018657600080fd5b81019080803590602001906401000000008111156101a357600080fd5b8201836020820111156101b557600080fd5b803590602001918460018302840111640100000000831117156101d757600080fd5b91908080601f016020809104026020016040519081016040528093929190818152602001838380828437600081840152601f19601f8201169050808301925050505050505091929192908035906020019064010000000081111561023a57600080fd5b82018360208201111561024c57600080fd5b8035906020019184600183028401116401000000008311171561026e57600080fd5b91908080601f016020809104026020016040519081016040528093929190818152602001838380828437600081840152601f19601f820116905080830192505050505050509192919290803590602001906401000000008111156102d157600080fd5b8201836020820111156102e357600080fd5b8035906020019184600183028401116401000000008311171561030557600080fd5b91908080601f016020809104026020016040519081016040528093929190818152602001838380828437600081840152601f19601f820116905080830192505050505050509192919290803573ffffffffffffffffffffffffffffffffffffffff169060200190929190803590602001909291905050506103a0565b005b600061039882846103a790919063ffffffff16565b905092915050565b5050505050565b6000604182511415156103bd57600090506104a8565b60008060006020850151925060408501519150606085015160001a90507f7fffffffffffffffffffffffffffffff5d576e7357a4501ddfe92f46681b20a08260019004111561041257600093505050506104a8565b601b8160ff161415801561042a5750601c8160ff1614155b1561043b57600093505050506104a8565b60018682858560405160008152602001604052604051808581526020018460ff1660ff1681526020018381526020018281526020019450505050506020604051602081039080840390855afa158015610498573d6000803e3d6000fd5b5050506020604051035193505050505b9291505056fea165627a7a72305820977e57d93f9c2ff33d8aa9048384f3b0e130df9d4c21ccab52d2119419ec75c90029",
  "source": "pragma solidity >=0.5.0 <0.6.0;\n\nimport \"openzeppelin-solidity/contracts/cryptography/ECDSA.sol\";\n\ncontract Prototype {\n  // approve, takes in a public key, a few string fields name, address, hash. \n  // Then a signature of the public key they can be verified\n  using ECDSA for bytes32;\n\n  function recover(bytes32 _hash, bytes memory _signature) public pure returns (address) {\n        return _hash.recover(_signature);\n  }\n\n  function approve (\n    string memory _pubKey,\n    string memory _str1,\n    string memory _str2,\n    address _addr,\n    bytes32 hash)\n    public {\n\n    }\n}",
  "sourcePath": "/Users/andrei/Documents/GitHub/Node.js-prototype/contracts/Prototype.sol",
  "compiler": {
    "name": "solc",
    "version": "0.5.0+commit.1d4f565a.Emscripten.clang"
  },
  "schemaVersion": "3.0.16",
  "updatedAt": "2019-10-17T04:56:38.459Z",
  "devdoc": {
    "methods": {}
  },
  "userdoc": {
    "methods": {}
  }
}